{
    "contractName": "ERC20",
    "abi": [
        {
            "anonymous": false,
            "inputs": [
                {
                    "indexed": true,
                    "internalType": "address",
                    "name": "_owner",
                    "type": "address"
                },
                {
                    "indexed": true,
                    "internalType": "address",
                    "name": "_spender",
                    "type": "address"
                },
                {
                    "indexed": false,
                    "internalType": "uint256",
                    "name": "_value",
                    "type": "uint256"
                }
            ],
            "name": "Approval",
            "type": "event"
        },
        {
            "anonymous": false,
            "inputs": [
                {
                    "indexed": true,
                    "internalType": "address",
                    "name": "_from",
                    "type": "address"
                },
                {
                    "indexed": true,
                    "internalType": "address",
                    "name": "_to",
                    "type": "address"
                },
                {
                    "indexed": false,
                    "internalType": "uint256",
                    "name": "_value",
                    "type": "uint256"
                }
            ],
            "name": "Transfer",
            "type": "event"
        },
        {
            "inputs": [
                {
                    "internalType": "address",
                    "name": "owner",
                    "type": "address"
                },
                {
                    "internalType": "address",
                    "name": "spender",
                    "type": "address"
                }
            ],
            "name": "allowance",
            "outputs": [
                {
                    "internalType": "uint256",
                    "name": "",
                    "type": "uint256"
                }
            ],
            "stateMutability": "view",
            "type": "function"
        },
        {
            "inputs": [
                {
                    "internalType": "address",
                    "name": "spender",
                    "type": "address"
                },
                {
                    "internalType": "uint256",
                    "name": "value",
                    "type": "uint256"
                }
            ],
            "name": "approve",
            "outputs": [
                {
                    "internalType": "bool",
                    "name": "",
                    "type": "bool"
                }
            ],
            "stateMutability": "nonpayable",
            "type": "function"
        },
        {
            "inputs": [
                {
                    "internalType": "address",
                    "name": "owner",
                    "type": "address"
                }
            ],
            "name": "balanceOf",
            "outputs": [
                {
                    "internalType": "uint256",
                    "name": "",
                    "type": "uint256"
                }
            ],
            "stateMutability": "view",
            "type": "function"
        },
        {
            "inputs": [],
            "name": "totalSupply",
            "outputs": [
                {
                    "internalType": "uint256",
                    "name": "",
                    "type": "uint256"
                }
            ],
            "stateMutability": "view",
            "type": "function"
        },
        {
            "inputs": [
                {
                    "internalType": "address",
                    "name": "to",
                    "type": "address"
                },
                {
                    "internalType": "uint256",
                    "name": "value",
                    "type": "uint256"
                }
            ],
            "name": "transfer",
            "outputs": [
                {
                    "internalType": "bool",
                    "name": "",
                    "type": "bool"
                }
            ],
            "stateMutability": "nonpayable",
            "type": "function"
        },
        {
            "inputs": [
                {
                    "internalType": "address",
                    "name": "from",
                    "type": "address"
                },
                {
                    "internalType": "address",
                    "name": "to",
                    "type": "address"
                },
                {
                    "internalType": "uint256",
                    "name": "value",
                    "type": "uint256"
                }
            ],
            "name": "trasferFrom",
            "outputs": [
                {
                    "internalType": "bool",
                    "name": "",
                    "type": "bool"
                }
            ],
            "stateMutability": "nonpayable",
            "type": "function"
        }
    ],
    "bytecode": "608060405234801561001057600080fd5b5061052f806100206000396000f3fe608060405234801561001057600080fd5b50600436106100625760003560e01c8063095ea7b31461006757806318160ddd1461008f578063666b6041146100a157806370a08231146100b4578063a9059cbb146100dd578063dd62ed3e146100f0575b600080fd5b61007a610075366004610400565b610129565b60405190151581526020015b60405180910390f35b6000545b604051908152602001610086565b61007a6100af36600461042a565b6101a2565b6100936100c2366004610466565b6001600160a01b031660009081526001602052604090205490565b61007a6100eb366004610400565b610302565b6100936100fe366004610481565b6001600160a01b03918216600090815260026020908152604080832093909416825291909152205490565b60006001600160a01b03831661013e57600080fd5b3360008181526002602090815260408083206001600160a01b03881680855290835292819020869055518581529192917f8c5be1e5ebec7d5bd14f71427d1e84f3dd0314c0f7b2291e5b200ac8c7c3b925910160405180910390a350600192915050565b6001600160a01b0383166000908152600160205260408120548211156101c757600080fd5b6001600160a01b03841660009081526002602090815260408083203384529091529020548211156101f757600080fd5b6001600160a01b03831661020a57600080fd5b6001600160a01b03841660009081526001602052604090205461022d908361039e565b6001600160a01b03808616600090815260016020526040808220939093559085168152205461025c90836103c1565b6001600160a01b03808516600090815260016020908152604080832094909455918716815260028252828120338252909152205461029a908361039e565b6001600160a01b03858116600081815260026020908152604080832033845282529182902094909455518581529186169290917fddf252ad1be2c89b69c2b068fc378daa952ba7f163c4a11628f55a4df523b3ef910160405180910390a35060019392505050565b3360009081526001602052604081205482111561031e57600080fd5b6001600160a01b03831661033157600080fd5b3360009081526001602052604090205461034b908361039e565b33600090815260016020526040808220929092556001600160a01b0385168152205461037790836103c1565b6001600160a01b038416600090815260016020819052604090912091909155905092915050565b6000818310156103ad57600080fd5b60006103b983856104ca565b949350505050565b6000806103ce83856104e1565b9050838110156103dd57600080fd5b9392505050565b80356001600160a01b03811681146103fb57600080fd5b919050565b6000806040838503121561041357600080fd5b61041c836103e4565b946020939093013593505050565b60008060006060848603121561043f57600080fd5b610448846103e4565b9250610456602085016103e4565b9150604084013590509250925092565b60006020828403121561047857600080fd5b6103dd826103e4565b6000806040838503121561049457600080fd5b61049d836103e4565b91506104ab602084016103e4565b90509250929050565b634e487b7160e01b600052601160045260246000fd5b6000828210156104dc576104dc6104b4565b500390565b600082198211156104f4576104f46104b4565b50019056fea26469706673582212200c6d7cfa545b2729497065ca2f7bed810cd962193e546185016b2e55a17a9ea164736f6c634300080e0033",
    "sourcePath": "c:/Users/Neosoft/Desktop/NeoSoft/Assignments/ERC20/contracts/ERC20.sol",
    "compiler": {
        "name": "solc",
        "version": "0.8.14+commit.80d49f37"
    },
    "functionHashes": {
        "allowance(address,address)": "dd62ed3e",
        "approve(address,uint256)": "095ea7b3",
        "balanceOf(address)": "70a08231",
        "totalSupply()": "18160ddd",
        "transfer(address,uint256)": "a9059cbb",
        "trasferFrom(address,address,uint256)": "666b6041"
    },
    "gasEstimates": {
        "creation": {
            "codeDepositCost": "265400",
            "executionCost": "306",
            "totalCost": "265706"
        },
        "external": {
            "allowance(address,address)": "infinite",
            "approve(address,uint256)": "24486",
            "balanceOf(address)": "2581",
            "totalSupply()": "2281",
            "transfer(address,uint256)": "51708",
            "trasferFrom(address,address,uint256)": "infinite"
        }
    }
}